:100000000C9461000C947E000C947E000C947E0095
:100010000C947E000C947E000C947E000C947E0068
:100020000C947E000C947E000C947E000C947E0058
:100030000C947E000C947E000C947E000C947E0048
:100040000C94F5010C947E000C947E000C947E00C0
:100050000C947E000C947E000C947E000C947E0028
:100060000C947E000C947E00000000090003020046
:10007000000405080000000000000000000000016E
:10008000020408102040800102040810200102042C
:100090000810204080400404040404040404020204
:1000A000020202020303030303030202030000002F
:1000B00000250028002B0000000000240027002A53
:1000C000000011241FBECFEFD4E0DEBFCDBF11E092
:1000D000A0E0B1E0E0E1F7E002C005900D92AC30A5
:1000E000B107D9F721E0ACE0B1E001C01D92AF311A
:1000F000B207E1F70E9477030C9486030C9400008A
:1001000061E08DE00E940C0361E087E00E940C0337
:1001100061E08CE00E940C0361E083E00E940C032C
:1001200061E085E00E940C0361E086E00E940C0320
:1001300061E089E00E940C0361E08AE00E940C0308
:1001400061E08BE00C940C03CF92DF92EF92FF9270
:100150000E943F026B017C0180911001909111017E
:10016000A0911201B0911301A7019601281B390B30
:100170004A0B5B0BDA01C9010A97A105B10508F426
:10018000C2C0C0921001D0921101E0921201F0920F
:10019000130180910501882309F4F1C080910B01BE
:1001A000893708F0ECC08F5F80930B0180910501C7
:1001B0008111E8C080910B01823008F4E3C08150C6
:1001C00080930B0180910401882309F4DFC08091A2
:1001D0000A018B3908F0DAC08F5F80930A018091A1
:1001E00004018111D6C080910A01823008F4D1C087
:1001F000815080930A0180910301882309F4CDC0C6
:1002000080910901813F08F0C8C08F5F8093090188
:10021000809103018111C4C080910901823008F4EA
:10022000BFC081508093090180910201882309F4A5
:10023000BBC0809108018F3F09F4B6C08F5F8093E7
:100240000801809102018111B2C0809108018230C1
:1002500008F4ADC08150809308018091010188238A
:1002600009F4A9C080910701893C08F0A4C08F5F00
:1002700080930701809101018111A0C08091070145
:10028000823008F49BC08150809307018091000167
:10029000882309F497C080910601853608F092C042
:1002A0008F5F809306018091000181118EC0809143
:1002B0000601823008F489C0815080930601609164
:1002C000090170E083E00E94860260910A0170E0FB
:1002D00085E00E9486026091090170E086E00E943C
:1002E00086026091080170E089E00E9486026091B8
:1002F000070170E08AE00E9486026091060170E0CA
:100300008BE00E94860280910C0190910D01A091DA
:100310000E01B0910F01A7019601281B390B4A0B62
:100320005B0BDA01C901853F9140A105B10508F4D5
:1003300057C0C0920C01D0920D01E0920E01F092D4
:100340000F018091140190911501892B09F441C08E
:100350001092150110921401609114018DE00E9419
:1003600048036091140187E00E94480360911401E2
:100370008CE0FF90EF90DF90CF900C9448031092A8
:10038000050114CF81E0809305011CCF1092040178
:1003900026CF81E0809304012ECF1092030138CF45
:1003A00081E08093030140CF109202014ACF81E0A7
:1003B0008093020152CF109201015CCF81E08093C3
:1003C000010164CF109200016ECF81E080930001A3
:1003D00076CF81E090E09093150180931401BCCF1B
:1003E000FF90EF90DF90CF9008951F920F920FB67D
:1003F0000F9211242F933F938F939F93AF93BF93AB
:100400008091170190911801A0911901B0911A01E2
:100410003091160126E0230F2D3758F50296A11DC5
:10042000B11D209316018093170190931801A0939A
:100430001901B0931A0180911B0190911C01A091A8
:100440001D01B0911E010196A11DB11D80931B01DC
:1004500090931C01A0931D01B0931E01BF91AF9119
:100460009F918F913F912F910F900FBE0F901F90F2
:10047000189529E8230F0396A11DB11DD2CF2FB7E0
:10048000F894609117017091180180911901909171
:100490001A012FBF0895789484B5826084BD84B515
:1004A000816084BD85B5826085BD85B5816085BD6F
:1004B000EEE6F0E0808181608083E1E8F0E0108288
:1004C000808182608083808181608083E0E8F0E0C9
:1004D000808181608083E1EBF0E0808184608083B3
:1004E000E0EBF0E0808181608083EAE7F0E08081EA
:1004F0008460808380818260808380818E7F80831E
:100500008081806880831092C10008951F93CF93EB
:10051000DF93182FEB0161E00E940C03209739F460
:1005200060E0812FDF91CF911F910C944803CF3F62
:10053000D10511F461E0F5CFE12FF0E0E859FF4F6C
:10054000E491E43031F140F4E230B1F0E330E1F035
:10055000C038D1057CF7E4CFE83029F1E93059F112
:10056000E530B1F780918000806280938000D09365
:100570008B00C0938A0004C084B5806884BDC7BD69
:10058000DF91CF911F91089584B5806284BDC8BD6D
:10059000F7CF80918000806880938000D09389009D
:1005A000C0938800EDCF8091B00080688093B00048
:1005B000C093B300E5CF8091B00080628093B0001B
:1005C000C093B400DDCF843081F028F4823099F0FC
:1005D0008330A9F008958830A9F08930C9F08530BA
:1005E000B1F4809180008F7D03C0809180008F776F
:1005F00080938000089584B58F7784BD089584B575
:100600008F7DFBCF8091B0008F778093B0000895ED
:100610008091B0008F7DF9CFCF93DF9390E0FC0104
:10062000E158FF4F24918A569F4FFC018491882303
:10063000C9F090E0880F991FFC01E954FF4FA59184
:10064000B491FC01E355FF4FC591D49161110DC0E8
:100650009FB7F8948C91209582238C9388812823CE
:1006600028839FBFDF91CF910895623051F49FB7E7
:10067000F8943C91822F809583238C93E8812E2BD4
:10068000EFCF8FB7F894EC912E2B2C938FBFEACF3E
:100690001F93CF93DF93282F30E0F901E859FF4FE4
:1006A0008491F901E158FF4FD491F901EA56FF4FC7
:1006B000C491CC23A9F0162F81110E94E302EC2FE4
:1006C000F0E0EE0FFF1FE355FF4FA591B4918FB7F8
:1006D000F894EC91111108C0D095DE23DC938FBF04
:1006E000DF91CF911F910895DE2BF8CF08950E94DE
:1006F0004B020E9476030E948000C0E0D0E00E947E
:10070000A4002097E1F30E940000F9CFF894FFCFF6
:0C071000010101010101FA14966432019C
:0200000002C03C
:00000001FF