:020000040000FA
:100000000C9434000C9446000C9446000C9446006A
:100010000C9446000C9446000C9446000C94460048
:100020000C9446000C9446000C9446000C94460038
:100030000C9446000C9446000C9446000C94460028
:100040000C945A000C9446000C9446000C94460004
:100050000C9446000C9446000C9446000C94460008
:100060000C9446000C94460011241FBECFEFD4E040
:10007000DEBFCDBF21E0A0E0B1E001C01D92A930FC
:10008000B207E1F70E944B000C94C8000C940000EA
:100090000895089508950E94A4000E944A000E94B5
:1000A0004800C0E0D0E00E9449002097E1F30E94A0
:1000B0000000F9CF1F920F920FB60F9211242F93C9
:1000C0003F938F939F93AF93BF9380910101909142
:1000D0000201A0910301B09104013091000120E3DD
:1000E000230F2D3758F54096A11DB11D2093000117
:1000F0008093010190930201A0930301B093040146
:100100008091050190910601A0910701B09108012D
:100110000196A11DB11D8093050190930601A09346
:100120000701B0930801BF91AF919F918F913F91CB
:100130002F910F900FBE0F901F90189523EB230F58
:100140004196A11DB11DD2CF789484B5836084BD42
:1001500085B5836085BDEEE6F0E0808181608083B7
:1001600082E080938100E0E8F0E08081816080831C
:10017000E1EBF0E0808184608083E0EBF0E080815F
:100180008160808383E880937A001092C100089593
:04019000F894FFCF11
:103E000001C0B2C0112484B7882361F0982F9A7042
:103E1000923041F081FF02C097EF94BF282E80E0DE
:103E2000C6D0EEC085E08093810082E08093C00020
:103E300088E18093C1008CE08093C40086E0809389
:103E4000C2008EE0B4D0259A84E023EC3FEF91E0ED
:103E5000309385002093840096BBB09BFECF1D9AC3
:103E6000A8954091C00047FD02C0815089F793D0CA
:103E7000813479F490D0182FA0D0123811F480E05A
:103E800004C088E0113809F083E07ED080E17CD066
:103E9000EECF823419F484E198D0F8CF853411F450
:103EA00085E0FACF853541F476D0C82F74D0D82F6D
:103EB000CC0FDD1F82D0EACF863519F484E085D09F
:103EC000DECF843691F567D066D0F82E64D0D82E38
:103ED00000E011E058018FEFA81AB80A5CD0F80191
:103EE00080838501FA10F6CF68D0F5E4DF1201C0B7
:103EF000FFCF50E040E063E0CE0136D08E01E0E03D
:103F0000F1E06F0182E0C80ED11C4081518161E077
:103F1000C8012AD00E5F1F4FF601FC10F2CF50E00F
:103F200040E065E0CE0120D0B1CF843771F433D0CA
:103F300032D0F82E30D041D08E01F80185918F011A
:103F400023D0FA94F110F9CFA1CF853739F435D0C9
:103F50008EE11AD084E918D08BE097CF813509F033
:103F6000A9CF88E024D0A6CFFC010A0167BFE8955D
:103F7000112407B600FCFDCF667029F0452B19F41B
:103F800081E187BFE89508959091C00095FFFCCF2F
:103F90008093C60008958091C00087FFFCCF809178
:103FA000C00084FD01C0A8958091C6000895E0E698
:103FB000F0E098E1908380830895EDDF803219F07E
:103FC00088E0F5DFFFCF84E1DFCFCF93C82FE3DFB9
:083FD000C150E9F7CF91F1CFD8
:023FFE000008B9
:00000001FF
