:100000003FC059C058C057C056C055C054C053C057
:1000100052C0EDC050C04FC04EC04DC04CC04BC0D0
:100020004AC049C048C000000000000000000004B1
:1000300005070000000000000000000000010204AD
:10004000081020408001020408102001020408105A
:100050002040804004040404040404040202020258
:10006000020203030303030302020300000000383B
:10007000003500320000000000370034003100007D
:1000800011241FBECFE5D4E0DEBFCDBF10E0A0E657
:10009000B0E0E6E5F4E002C005900D92A636B107A7
:1000A000D9F720E0A6E6B0E001C01D92A837B2075C
:1000B000E1F7C5D1CEC1A4CF61E086E056D161E0C1
:1000C00087E053D161E088E050D161E084E04DC128
:1000D000CF92DF92EF92FF920F931F93D2D0609353
:1000E0006A0070936B0080936C0090936D00009198
:1000F00066001091670020916800309169006B01E3
:100100007C01C01AD10AE20AF30A970186010A307B
:1001100011052105310508F463C0609366007093F2
:1001200067008093680090936900809164009091CB
:1001300061009923C9F18F5F80936400843628F0B1
:100140001092610061E084E04CD180916300909155
:100150006000992399F18F5F80936300843610F0DB
:10016000109260008091620090916E00992379F165
:100170008F5F80936200843610F010926E00609161
:10018000640070E086E0A9D06091630070E087E0D1
:10019000A4D06091620070E088E01F910F91FF9001
:1001A000EF90DF90CF9099C08150809364008230AF
:1001B00060F681E08093610060E0C5CF815080935C
:1001C0006300823078F681E080936000CBCF81506D
:1001D00080936200823098F681E080936E00CFCFEA
:1001E0001F910F91FF90EF90DF90CF9008951F9295
:1001F0000F920FB60F9211242F933F938F939F93DB
:10020000AF93BF938091700090917100A0917200A4
:10021000B091730030916F0023E0230F2D3758F514
:100220000196A11DB11D20936F00809370009093E3
:100230007100A0937200B09373008091740090914C
:100240007500A0917600B09177000196A11DB11DB7
:100250008093740090937500A0937600B09377001C
:10026000BF91AF919F918F913F912F910F900FBEB2
:100270000F901F90189526E8230F0296A11DB11D1F
:10028000D2CF2FB7F8946091700070917100809177
:100290007200909173002FBF0895789483B78260A5
:1002A00083BF83B7816083BF89B7816089BF1EBC6C
:1002B0008EB582608EBD8EB581608EBD8FB581603A
:1002C0008FBD85B5846085BD85B5806485BD329A56
:1002D000319A309A379A1AB808951F93CF93DF93C3
:1002E000182FEB0161E041D0209731F460E0812FBD
:1002F000DF91CF911F9175C0CF3FD10511F461E01F
:10030000F6CFE12FF0E0EA5DFF4FE491E53069F0D0
:10031000E73089F0E430A1F48FB580688FBDDBBD94
:10032000CABDDF91CF911F9108958FB580628FBDB7
:10033000D9BDC8BDF6CF85B5806285BDC3BDF1CF3F
:10034000C038D105E4F6D2CF853041F0873049F08E
:10035000843051F48FB58F778FBD08958FB58F7D21
:10036000FBCF85B58F7D85BD0895CF93DF9390E05A
:10037000FC01E35CFF4F24918C5A9F4FFC01849158
:100380008823C9F090E0880F991FFC01EB58FF4FBC
:10039000A591B491FC01E559FF4FC591D49161112C
:1003A0000DC09FB7F8948C91209582238C938881FF
:1003B000282328839FBFDF91CF910895623051F4A5
:1003C0009FB7F8943C91822F809583238C93E8818A
:1003D0002E2BEFCF8FB7F894EC912E2B2C938FBF51
:1003E000EACF1F93CF93DF93282F30E0F901EA5D26
:1003F000FF4F8491F901E35CFF4FD491F901EC5A6E
:10040000FF4FC491CC23A1F0162F81119DDFEC2F5B
:10041000F0E0EE0FFF1FE559FF4FA591B4918FB7A4
:10042000F894EC91111108C0D095DE23DC938FBFB6
:10043000DF91CF911F910895DE2BF8CF08952DDF26
:10044000FDDF3ADEC0E0D0E043DE2097E9F3D8DDFF
:06045000FBCFF894FFCF82
:0604560001013C0A5A00FE
:00000001FF
